{
  "_format": "hh-sol-artifact-1",
  "contractName": "TokenVesting",
  "sourceName": "contracts/vesting.sol",
  "abi": [
    {
      "inputs": [
        {
          "internalType": "address",
          "name": "tokenAddress",
          "type": "address"
        }
      ],
      "stateMutability": "nonpayable",
      "type": "constructor"
    },
    {
      "inputs": [
        {
          "internalType": "uint256",
          "name": "",
          "type": "uint256"
        }
      ],
      "name": "allVestingSchedules",
      "outputs": [
        {
          "internalType": "uint256",
          "name": "id",
          "type": "uint256"
        },
        {
          "internalType": "address",
          "name": "beneficiary",
          "type": "address"
        },
        {
          "internalType": "uint256",
          "name": "start",
          "type": "uint256"
        },
        {
          "internalType": "uint256",
          "name": "duration",
          "type": "uint256"
        },
        {
          "internalType": "uint256",
          "name": "totalAmount",
          "type": "uint256"
        },
        {
          "internalType": "uint256",
          "name": "amountWithdrawn",
          "type": "uint256"
        },
        {
          "internalType": "uint256",
          "name": "releaseInterval",
          "type": "uint256"
        }
      ],
      "stateMutability": "view",
      "type": "function"
    },
    {
      "inputs": [],
      "name": "contractBalance",
      "outputs": [
        {
          "internalType": "uint256",
          "name": "",
          "type": "uint256"
        }
      ],
      "stateMutability": "view",
      "type": "function"
    },
    {
      "inputs": [
        {
          "internalType": "address[]",
          "name": "_beneficiaries",
          "type": "address[]"
        }
      ],
      "name": "createVestingSchedule",
      "outputs": [],
      "stateMutability": "nonpayable",
      "type": "function"
    },
    {
      "inputs": [
        {
          "internalType": "address",
          "name": "account",
          "type": "address"
        }
      ],
      "name": "getHoldersVestingScheduleId",
      "outputs": [
        {
          "internalType": "uint256",
          "name": "",
          "type": "uint256"
        }
      ],
      "stateMutability": "view",
      "type": "function"
    },
    {
      "inputs": [],
      "name": "getOwnerAddress",
      "outputs": [
        {
          "internalType": "address",
          "name": "",
          "type": "address"
        }
      ],
      "stateMutability": "view",
      "type": "function"
    },
    {
      "inputs": [],
      "name": "getTotalTokenSupply",
      "outputs": [
        {
          "internalType": "uint256",
          "name": "",
          "type": "uint256"
        }
      ],
      "stateMutability": "view",
      "type": "function"
    },
    {
      "inputs": [],
      "name": "getTotalVestingSchedules",
      "outputs": [
        {
          "internalType": "uint256",
          "name": "",
          "type": "uint256"
        }
      ],
      "stateMutability": "view",
      "type": "function"
    },
    {
      "inputs": [
        {
          "internalType": "uint256",
          "name": "id",
          "type": "uint256"
        }
      ],
      "name": "getVestingSchedule",
      "outputs": [
        {
          "components": [
            {
              "internalType": "uint256",
              "name": "id",
              "type": "uint256"
            },
            {
              "internalType": "address",
              "name": "beneficiary",
              "type": "address"
            },
            {
              "internalType": "uint256",
              "name": "start",
              "type": "uint256"
            },
            {
              "internalType": "uint256",
              "name": "duration",
              "type": "uint256"
            },
            {
              "internalType": "uint256",
              "name": "totalAmount",
              "type": "uint256"
            },
            {
              "internalType": "uint256",
              "name": "amountWithdrawn",
              "type": "uint256"
            },
            {
              "internalType": "uint256",
              "name": "releaseInterval",
              "type": "uint256"
            }
          ],
          "internalType": "struct TokenVesting.VestingSchedule",
          "name": "",
          "type": "tuple"
        }
      ],
      "stateMutability": "view",
      "type": "function"
    },
    {
      "inputs": [
        {
          "internalType": "address",
          "name": "",
          "type": "address"
        }
      ],
      "name": "holdersVestingScheduleId",
      "outputs": [
        {
          "internalType": "uint256",
          "name": "",
          "type": "uint256"
        }
      ],
      "stateMutability": "view",
      "type": "function"
    },
    {
      "inputs": [],
      "name": "owner",
      "outputs": [
        {
          "internalType": "address",
          "name": "",
          "type": "address"
        }
      ],
      "stateMutability": "view",
      "type": "function"
    },
    {
      "inputs": [
        {
          "internalType": "address",
          "name": "account",
          "type": "address"
        }
      ],
      "name": "releasedTokensAmount",
      "outputs": [
        {
          "internalType": "uint256",
          "name": "",
          "type": "uint256"
        }
      ],
      "stateMutability": "view",
      "type": "function"
    },
    {
      "inputs": [],
      "name": "totalTokenSupply",
      "outputs": [
        {
          "internalType": "uint256",
          "name": "",
          "type": "uint256"
        }
      ],
      "stateMutability": "view",
      "type": "function"
    },
    {
      "inputs": [],
      "name": "totalVestingSchedules",
      "outputs": [
        {
          "internalType": "uint256",
          "name": "",
          "type": "uint256"
        }
      ],
      "stateMutability": "view",
      "type": "function"
    },
    {
      "inputs": [],
      "name": "userBalance",
      "outputs": [
        {
          "internalType": "uint256",
          "name": "",
          "type": "uint256"
        }
      ],
      "stateMutability": "view",
      "type": "function"
    },
    {
      "inputs": [
        {
          "internalType": "address",
          "name": "account",
          "type": "address"
        },
        {
          "internalType": "uint256",
          "name": "amount",
          "type": "uint256"
        }
      ],
      "name": "withdrawTokens",
      "outputs": [],
      "stateMutability": "nonpayable",
      "type": "function"
    }
  ],
  "bytecode": "0x60806040526305f5e10060025560006003553480156200001e57600080fd5b50604051620016ae380380620016ae8339818101604052810190620000449190620000e3565b336000806101000a81548173ffffffffffffffffffffffffffffffffffffffff021916908373ffffffffffffffffffffffffffffffffffffffff16021790555080600160006101000a81548173ffffffffffffffffffffffffffffffffffffffff021916908373ffffffffffffffffffffffffffffffffffffffff160217905550506200015d565b600081519050620000dd8162000143565b92915050565b600060208284031215620000f657600080fd5b60006200010684828501620000cc565b91505092915050565b60006200011c8262000123565b9050919050565b600073ffffffffffffffffffffffffffffffffffffffff82169050919050565b6200014e816200010f565b81146200015a57600080fd5b50565b611541806200016d6000396000f3fe608060405234801561001057600080fd5b50600436106100f55760003560e01c806373e20c6c11610097578063bf15276511610066578063bf15276514610276578063dc6c6bac14610294578063ee5f560b146102b2578063f46386d2146102e2576100f5565b806373e20c6c146101ee5780638b7afe2e1461020a5780638da5cb5b14610228578063beb8f88314610246576100f5565b80630c4f65bd116100d35780630c4f65bd146101645780631ca8b6cb146101825780631d43986c146101a05780636a273a27146101d0576100f5565b8063047087cc146100fa57806306b091f9146101185780630af1b7cf14610134575b600080fd5b610102610318565b60405161010f91906110c4565b60405180910390f35b610132600480360381019061012d9190610dda565b610322565b005b61014e60048036038101906101499190610db1565b6104f7565b60405161015b91906110c4565b60405180910390f35b61016c61050f565b6040516101799190611005565b60405180910390f35b61018a610538565b60405161019791906110c4565b60405180910390f35b6101ba60048036038101906101b59190610db1565b61053e565b6040516101c791906110c4565b60405180910390f35b6101d861070e565b6040516101e591906110c4565b60405180910390f35b61020860048036038101906102039190610e16565b610718565b005b61021261082c565b60405161021f91906110c4565b60405180910390f35b6102306108de565b60405161023d9190611005565b60405180910390f35b610260600480360381019061025b9190610e80565b610902565b60405161026d91906110a9565b60405180910390f35b61027e6109c1565b60405161028b91906110c4565b60405180910390f35b61029c610a73565b6040516102a991906110c4565b60405180910390f35b6102cc60048036038101906102c79190610db1565b610a79565b6040516102d991906110c4565b60405180910390f35b6102fc60048036038101906102f79190610e80565b610ac2565b60405161030f97969594939291906110df565b60405180910390f35b6000600254905090565b6000600560008473ffffffffffffffffffffffffffffffffffffffff1673ffffffffffffffffffffffffffffffffffffffff168152602001908152602001600020549050600081116103a9576040517f08c379a00000000000000000000000000000000000000000000000000000000081526004016103a090611069565b60405180910390fd5b600060046000838152602001908152602001600020905060006103cb8561053e565b905060008260050154826103df9190611291565b905080851115610424576040517f08c379a000000000000000000000000000000000000000000000000000000000815260040161041b90611049565b60405180910390fd5b600160009054906101000a900473ffffffffffffffffffffffffffffffffffffffff1673ffffffffffffffffffffffffffffffffffffffff1663a9059cbb87876040518363ffffffff1660e01b8152600401610481929190611020565b602060405180830381600087803b15801561049b57600080fd5b505af11580156104af573d6000803e3d6000fd5b505050506040513d601f19601f820116820180604052508101906104d39190610e57565b50848360050160008282546104e891906111b0565b92505081905550505050505050565b60056020528060005260406000206000915090505481565b60008060009054906101000a900473ffffffffffffffffffffffffffffffffffffffff16905090565b60025481565b600080600560008473ffffffffffffffffffffffffffffffffffffffff1673ffffffffffffffffffffffffffffffffffffffff168152602001908152602001600020549050600081116105c6576040517f08c379a00000000000000000000000000000000000000000000000000000000081526004016105bd90611069565b60405180910390fd5b6000600460008381526020019081526020016000206040518060e0016040529081600082015481526020016001820160009054906101000a900473ffffffffffffffffffffffffffffffffffffffff1673ffffffffffffffffffffffffffffffffffffffff1673ffffffffffffffffffffffffffffffffffffffff168152602001600282015481526020016003820154815260200160048201548152602001600582015481526020016006820154815250509050600081604001514261068c9190611291565b905081606001518111156106a257816060015190505b60008260c0015183606001516106b89190611206565b905060008360c00151836106cc9190611206565b905060008183670de0b6b3a764000087608001516106ea9190611237565b6106f49190611206565b6106fe9190611237565b9050809650505050505050919050565b6000600354905090565b60008054906101000a900473ffffffffffffffffffffffffffffffffffffffff1673ffffffffffffffffffffffffffffffffffffffff163373ffffffffffffffffffffffffffffffffffffffff16146107a6576040517f08c379a000000000000000000000000000000000000000000000000000000000815260040161079d90611089565b60405180910390fd5b6000815190506000816002546107bc9190611206565b905060005b8281101561082657610813848281518110610805577f4e487b7100000000000000000000000000000000000000000000000000000000600052603260045260246000fd5b602002602001015183610b24565b808061081e9061133e565b9150506107c1565b50505050565b6000600160009054906101000a900473ffffffffffffffffffffffffffffffffffffffff1673ffffffffffffffffffffffffffffffffffffffff166370a08231306040518263ffffffff1660e01b81526004016108899190611005565b60206040518083038186803b1580156108a157600080fd5b505afa1580156108b5573d6000803e3d6000fd5b505050506040513d601f19601f820116820180604052508101906108d99190610ea9565b905090565b60008054906101000a900473ffffffffffffffffffffffffffffffffffffffff1681565b61090a610c74565b600460008381526020019081526020016000206040518060e0016040529081600082015481526020016001820160009054906101000a900473ffffffffffffffffffffffffffffffffffffffff1673ffffffffffffffffffffffffffffffffffffffff1673ffffffffffffffffffffffffffffffffffffffff168152602001600282015481526020016003820154815260200160048201548152602001600582015481526020016006820154815250509050919050565b6000600160009054906101000a900473ffffffffffffffffffffffffffffffffffffffff1673ffffffffffffffffffffffffffffffffffffffff166370a08231336040518263ffffffff1660e01b8152600401610a1e9190611005565b60206040518083038186803b158015610a3657600080fd5b505afa158015610a4a573d6000803e3d6000fd5b505050506040513d601f19601f82011682018060405250810190610a6e9190610ea9565b905090565b60035481565b6000600560008373ffffffffffffffffffffffffffffffffffffffff1673ffffffffffffffffffffffffffffffffffffffff168152602001908152602001600020549050919050565b60046020528060005260406000206000915090508060000154908060010160009054906101000a900473ffffffffffffffffffffffffffffffffffffffff16908060020154908060030154908060040154908060050154908060060154905087565b60036000815480929190610b379061133e565b91905055506000600354905080600560008573ffffffffffffffffffffffffffffffffffffffff1673ffffffffffffffffffffffffffffffffffffffff168152602001908152602001600020819055506040518060e001604052808281526020018473ffffffffffffffffffffffffffffffffffffffff1681526020014281526020016301e19140815260200183815260200160008152602001603c815250600460008381526020019081526020016000206000820151816000015560208201518160010160006101000a81548173ffffffffffffffffffffffffffffffffffffffff021916908373ffffffffffffffffffffffffffffffffffffffff16021790555060408201518160020155606082015181600301556080820151816004015560a0820151816005015560c08201518160060155905050505050565b6040518060e0016040528060008152602001600073ffffffffffffffffffffffffffffffffffffffff16815260200160008152602001600081526020016000815260200160008152602001600081525090565b6000610cda610cd584611173565b61114e565b90508083825260208201905082856020860282011115610cf957600080fd5b60005b85811015610d295781610d0f8882610d33565b845260208401935060208301925050600181019050610cfc565b5050509392505050565b600081359050610d42816114c6565b92915050565b600082601f830112610d5957600080fd5b8135610d69848260208601610cc7565b91505092915050565b600081519050610d81816114dd565b92915050565b600081359050610d96816114f4565b92915050565b600081519050610dab816114f4565b92915050565b600060208284031215610dc357600080fd5b6000610dd184828501610d33565b91505092915050565b60008060408385031215610ded57600080fd5b6000610dfb85828601610d33565b9250506020610e0c85828601610d87565b9150509250929050565b600060208284031215610e2857600080fd5b600082013567ffffffffffffffff811115610e4257600080fd5b610e4e84828501610d48565b91505092915050565b600060208284031215610e6957600080fd5b6000610e7784828501610d72565b91505092915050565b600060208284031215610e9257600080fd5b6000610ea084828501610d87565b91505092915050565b600060208284031215610ebb57600080fd5b6000610ec984828501610d9c565b91505092915050565b610edb816112c5565b82525050565b610eea816112c5565b82525050565b6000610efd601a8361119f565b9150610f0882611425565b602082019050919050565b6000610f2060258361119f565b9150610f2b8261144e565b604082019050919050565b6000610f43600d8361119f565b9150610f4e8261149d565b602082019050919050565b60e082016000820151610f6f6000850182610fe7565b506020820151610f826020850182610ed2565b506040820151610f956040850182610fe7565b506060820151610fa86060850182610fe7565b506080820151610fbb6080850182610fe7565b5060a0820151610fce60a0850182610fe7565b5060c0820151610fe160c0850182610fe7565b50505050565b610ff081611303565b82525050565b610fff81611303565b82525050565b600060208201905061101a6000830184610ee1565b92915050565b60006040820190506110356000830185610ee1565b6110426020830184610ff6565b9392505050565b6000602082019050818103600083015261106281610ef0565b9050919050565b6000602082019050818103600083015261108281610f13565b9050919050565b600060208201905081810360008301526110a281610f36565b9050919050565b600060e0820190506110be6000830184610f59565b92915050565b60006020820190506110d96000830184610ff6565b92915050565b600060e0820190506110f4600083018a610ff6565b6111016020830189610ee1565b61110e6040830188610ff6565b61111b6060830187610ff6565b6111286080830186610ff6565b61113560a0830185610ff6565b61114260c0830184610ff6565b98975050505050505050565b6000611158611169565b9050611164828261130d565b919050565b6000604051905090565b600067ffffffffffffffff82111561118e5761118d6113e5565b5b602082029050602081019050919050565b600082825260208201905092915050565b60006111bb82611303565b91506111c683611303565b9250827fffffffffffffffffffffffffffffffffffffffffffffffffffffffffffffffff038211156111fb576111fa611387565b5b828201905092915050565b600061121182611303565b915061121c83611303565b92508261122c5761122b6113b6565b5b828204905092915050565b600061124282611303565b915061124d83611303565b9250817fffffffffffffffffffffffffffffffffffffffffffffffffffffffffffffffff048311821515161561128657611285611387565b5b828202905092915050565b600061129c82611303565b91506112a783611303565b9250828210156112ba576112b9611387565b5b828203905092915050565b60006112d0826112e3565b9050919050565b60008115159050919050565b600073ffffffffffffffffffffffffffffffffffffffff82169050919050565b6000819050919050565b61131682611414565b810181811067ffffffffffffffff82111715611335576113346113e5565b5b80604052505050565b600061134982611303565b91507fffffffffffffffffffffffffffffffffffffffffffffffffffffffffffffffff82141561137c5761137b611387565b5b600182019050919050565b7f4e487b7100000000000000000000000000000000000000000000000000000000600052601160045260246000fd5b7f4e487b7100000000000000000000000000000000000000000000000000000000600052601260045260246000fd5b7f4e487b7100000000000000000000000000000000000000000000000000000000600052604160045260246000fd5b6000601f19601f8301169050919050565b7f696e73756666696369656e7420746f6b656e2062616c616e6365000000000000600082015250565b7f6164647265737320646f65736e277420686176652076657374696e672073636860008201527f6465756c65000000000000000000000000000000000000000000000000000000602082015250565b7f6163636573732064656e69656400000000000000000000000000000000000000600082015250565b6114cf816112c5565b81146114da57600080fd5b50565b6114e6816112d7565b81146114f157600080fd5b50565b6114fd81611303565b811461150857600080fd5b5056fea264697066735822122036508a9fdda357e71d1f36a7f5737286633985eb532f8b1cedeb63618e2f514a64736f6c63430008040033",
  "linkReferences": {},
  "deployedLinkReferences": {}
}